{
  "contractName": "LDHToken",
  "abi": [
    {
      "constant": true,
      "inputs": [],
      "name": "totalSupply",
      "outputs": [
        {
          "name": "",
          "type": "uint256"
        }
      ],
      "payable": false,
      "stateMutability": "view",
      "type": "function"
    },
    {
      "inputs": [],
      "payable": false,
      "stateMutability": "nonpayable",
      "type": "constructor"
    }
  ],
  "bytecode": "0x608060405234801561001057600080fd5b50620f4240600081905550609e806100296000396000f300608060405260043610603f576000357c0100000000000000000000000000000000000000000000000000000000900463ffffffff16806318160ddd146044575b600080fd5b348015604f57600080fd5b506056606c565b6040518082815260200191505060405180910390f35b600054815600a165627a7a72305820b74a13ed04f69e2c08f2de7150fcc21947b84fa91edc4e6f518b4286f138a10a0029",
  "source": "pragma solidity ^0.4.19;\n\n/**\n * The LDHToken contract does this and that...\n */\n\n//constructor and function a same name\n//set total supply of LDHToken\n//read total supply of LDHToken\ncontract LDHToken {\n\n\tuint256 public totalSupply; //public to be visible & with pubic there will be a setter by solidity \n\n\tfunction LDHToken () public {\n\t\ttotalSupply = 1000000;\n\t}\t\n}\n\n\n",
  "sourcePath": "/Users/ldh_mbpr2015/express-demo/token-sale/contracts/LDHToken.sol",
  "compiler": {
    "name": "solc",
    "version": "0.4.24+commit.e67f0147.Emscripten.clang"
  },
  "schemaVersion": "2.0.1",
  "updatedAt": "2018-07-11T03:41:08.954Z"
}